:020000040800F2
:10000000A00C0020A1020008A9470008994300089D
:10001000394700082719000869550008000000004A
:10002000000000000000000000000000854A0008F9
:10003000351A000800000000A1480008874A00089F
:10004000BB020008BB020008BB020008BB0200089C
:10005000BB020008BB020008BB020008BB0200088C
:10006000BB020008BB020008BB02000829190008F7
:1000700035190008BB020008BB020008BB020008DB
:10008000BB020008BB020008BB020008BB0200085C
:10009000BB020008BB020008BB020008BB0200084C
:1000A000BB020008BB020008BB020008BB0200083C
:1000B000BB020008BB020008014B0008BB0200089D
:1000C000BB020008BB020008BB020008BB0200081C
:1000D000BB0200085D550008BB020008BB02000817
:1000E000BB020008BB020008BB020008BB020008FC
:1000F000BB020008BB020008BB020008BB020008EC
:10010000BB020008BB020008BB020008BB020008DB
:10011000BB020008BB020008BB020008BB020008CB
:10012000BB020008BB020008BB020008BB020008BB
:10013000BB020008BB020008BB020008BB020008AB
:10014000BB020008BB020008BB020008BB0200089B
:10015000BB020008BB020008BB020008BB0200088B
:10016000BB020008BB020008BB020008BB0200087B
:10017000BB020008BB020008BB020008BB0200086B
:10018000BB020008BB020008BB020008BB0200085B
:10019000BB02000800000000BB020008BB02000810
:1001A000BB020008BB020008BB020008BB0200083B
:1001B000BB020008BB020008BB020008BB0200082B
:1001C000BB020008BB020008BB020008BB0200081B
:1001D000BB020008BB02000800F002F800F050F873
:1001E0000AA090E8000C82448344AAF10107DA4592
:1001F00001D100F045F8AFF2090EBAE80F0013F094
:10020000010F18BFFB1A43F001031847E87D0000F7
:10021000087E0000103A24BF78C878C1FAD8520787
:1002200024BF30C830C144BF04680C607047000070
:100230000023002400250026103A28BF78C1FBD8EF
:10024000520728BF30C148BF0B607047662907F0CE
:100250006684782900F04681002070471FB507F0BA
:1002600054FC9DE8030000F0B3FA00F0A3FD040085
:100270000020002106F0D4FDE0601FBD10B510BDC8
:1002800000F0D5FE1146FFF7E9FF06F0BBFA00F0DB
:10029000F3FE03B4FFF7F2FF03BC05F057FE0000C6
:1002A0000948804709480047FEE7FEE7FEE7FEE70A
:1002B000FEE7FEE7FEE7FEE7FEE7FEE70448054946
:1002C000054A064B70470000F14A0008D9010008B2
:1002D000A0060020A00C0020A0080020A0080020FC
:1002E000704770B5064600F057FA056806F10B0036
:1002F00020F00704B4429CBF002070BD2B466A6802
:10030000BAB11068A04210D304F1080188423CBF82
:100310005068586007D35168101941601168091B73
:10032000016058601460101D70BD13465268002AA9
:10033000E7D12146284600F037FA0028DED170BD0B
:1003400070B50446051F00F027FA0068002C14BFA2
:10035000446870BD002C18BFAC423CBF20466468A6
:10036000F8D301680A18AA4218BF456003D12A6869
:1003700005461144016028684119A1421CBF6C6008
:1003800070BD6168696021680844286070BD53EAE7
:10039000020C00F069802DE9F04B4FF00006002BB5
:1003A0001FBFB3FA83F503FA05F424FA05F65E409D
:1003B00012BF1643B2FA82F502FA05F4C5F1200520
:1003C0001EBF22FA05FC44EA0C04203556EA044C10
:1003D0004FEA144418BF641C4FF000084FF00009A6
:1003E000904271EB030C39D3002919BFB1FA81F7A0
:1003F00001FA07F6B0FA80F700FA07F6C7F120070E
:100400001EBF20FA07FC46EA0C062037B6FBF4FCB8
:10041000A7EB0507103F07F01F0BCBF120060CFAE6
:100420000BFB2CFA06F644BFB3460026202FA4BFD0
:100430005E464FF0000B5BEA060C08BF4FF0010B65
:1004400019EB0B09ABFB027C48EB0608C01B06FB53
:1004500002CC0BFB03CC71EB0C01C1E70B4602464F
:1004600041464846BDE8F08B13B54FF000004FF011
:100470000001AFF30080BDE81C4070470FB4044991
:1004800010B503AA029800F04DFC10BC5DF814FBF7
:100490001000002070B5044685690068C10601D5CA
:1004A000302600E02026C00707D070BDD4E9012126
:1004B00030469047206A401C20626D1EF6D570BD04
:1004C00070B5044685690078C00707D170BDD4E9CE
:1004D000012120209047206A401C20626D1EF6D525
:1004E00070BD000070B504460D4621461068AFF39C
:1004F00000802188090502D50F4A7A4402E00E4A9D
:100500007A440E32002104F1240305E000F00F06C6
:100510000009965D5E54491C0028F7D1207800231D
:10052000000704D5702D02D009B1022311322046F4
:10053000BDE8704000F08DB9867900002DE9F05FCC
:10054000894604464FF0000ADFF824B1FB44C0F8A6
:1005500020A02046E168884700287DD0252806D0C5
:10056000D4E901219047206A401C2062F1E7002570
:100570005F462046E16888472028064607DB312E83
:1005800005D2B81910F8200C08B10543F1E7A80707
:1005900001D525F00405C4F81CA00027C4F818A054
:1005A0002A2E09D0304605F0B2FB38B304EB870899
:1005B000303EC8F8186019E059F8041B204604EBD7
:1005C00087029161E1688847012F064618D1E069EA
:1005D000002820DA25F020051DE0D8F8180000EBEF
:1005E000800006EB40003038C8F818002046E1686B
:1005F0008847064605F08BFB0028EED1012F0AD074
:100600002E2E08D12046E16888477F1C0646022F1F
:1006100045F02005C4DBA069002803DA404245F01C
:100620000105A061E80701D025F01005A6B1A6F1EB
:100630004100192802D8203645F400654A46314663
:10064000204625604D46FFF701FE60B1012807D026
:10065000ED1D25F0070000E007E000F1080978E74C
:1006600005F1040975E730467AE7206ABDE8F09F96
:100670005C790000032A40F2308010F0030C00F097
:10068000158011F8013BBCF1020F624498BF11F8CC
:1006900001CB00F8013B38BF11F8013BA2F1040285
:1006A00098BF00F801CB38BF00F8013B11F00303FD
:1006B00000F04A83083AC0F0088051F8043B083A39
:1006C00051F804CBA0E80810F5E7121D5CBF51F803
:1006D000043B40F8043BAFF30080D20724BF11F87D
:1006E000013B11F801CB48BF11F8012B24BF00F8E2
:1006F000013B00F801CB48BF00F8012B70474FF0D9
:1007000000020429C0F0128010F0030C00F01B80DE
:10071000CCF1040CBCF1020F18BF00F8012BA8BFEC
:1007200020F8022BA1EB0C0100F00DB85FEAC17CB0
:1007300024BF00F8012B00F8012B48BF00F8012B63
:1007400070474FF0000200B5134694469646203994
:1007500022BFA0E80C50A0E80C50B1F12001BFF47A
:10076000F7AF090728BFA0E80C5048BF0CC05DF8E0
:1007700004EB890028BF40F8042B08BF704748BF2E
:1007800020F8022B11F0804F18BF00F8012B7047A2
:100790007047704770477047004870474406002014
:1007A000704770477047704738B504460A460020C6
:1007B0006946AFF30080002808BF38BD02460099A3
:1007C000204600F0FFFA012038BD012000F028BCCF
:1007D000F8B5AFF30080054600200C46102000BF9E
:1007E0000646A819A0420DD9324669460020AFF34B
:1007F0000080070008BF00F013FC0098A04218BF5B
:100800000546C419FFF7C8FF05600746F01D20F034
:1008100007004619284600F00AF8B44208BFF8BDA0
:10082000A21B31463868BDE8F84000F0CBBA002181
:100830000160C0E9011070471020704710B500F04A
:10084000BDFA006810BD10B5044600F0B7FA0460A8
:1008500010BD2DE9F0470D4699469246044600F139
:1008600024080168880604D5E06921F010012160A0
:1008700000E00120A84201DD471B00E00027A1693C
:100880007A1902EB0900081AA0612078C00602D488
:100890002046FFF7FFFD002608E0D4E901211AF801
:1008A00006009047206A401C761C20624E45F4DB0F
:1008B0002078C0060AD52046FFF7ECFD06E0D4E913
:1008C000012130209047206A401C2062381EA7F189
:1008D0000107F4DC07E0D4E9012118F8050090478E
:1008E000206A401C2062281EA5F10105F3DC204689
:1008F000FFF7E6FD2078000602D50220BDE8F0876C
:100900000120FBE770472DE9FF4F0C461E464FF0D4
:10091000FF378BB0D2E90001DDF860800A908A468B
:10092000C1F30A5505B93D46002108464FF00000C5
:10093000BAF1000F00F4400005DA00EB80004FF43C
:10094000400101EA50004FEA9059B9F1010F00DD72
:10095000B9460A9850EA4A000ED044F61050A5F263
:10096000FF3545432F14B8F1000F1ED07542291EE4
:100970001EDDC9F100021CE0B8F1010F4FF00000CC
:1009800001D0302103E0F24305E02154401CB04285
:10099000FBDB30460022002121540B99C1F808806E
:1009A000C1E900200FB0BDE8F08FBD1B6D1CDEE774
:1009B0004A4600DA694206A800F0BCFA06AB93E8A2
:1009C000070003AB83E8070050460A9900F0E3FBF9
:1009D0008DE80700A0F500501F3800900398002D07
:1009E0000ADD42F21F014A460844002303A903908E
:1009F000684600F04CFE09E0A0F500504A461F385A
:100A0000002303A90390684600F056FE8DE8070016
:100A10000004000C03D04FF0FF30410800E0104606
:100A2000B8F1000F03D00022009215461EE0751E9B
:100A300005D400F0E1F9303262556D1EF9D5B346A8
:100A40000122084302D000227F1C04E020783028D5
:100A500001D100227F1E002A099784D01DE0112DAC
:100A600007DA00F0C9F9303262556D1C50EA010214
:100A7000F5D1084302D00098C8B10EE00021681EED
:100A800005E0235C625C63542254401E491C814291
:100A9000F7DBAB46A81B401E0990002004F80B00B2
:100AA0000B98099AC0F80880C0E9002B7AE7112654
:100AB0004FF0000857E72DE9F04F88460446D21D55
:100AC00022F0070191B0D1E90001CDE90A0104F05B
:100AD0004CFD02460B98C00F01D02D2007E0206886
:100AE000810701D52B2002E0202101EAC000032A62
:100AF000099001D0072A05DB03464146204600F055
:100B0000D9F90BE12078800601D5E06900E00620E4
:100B1000B8F1650F814606D0B8F1660F18D0B8F16C
:100B2000670F70D131E00020B9F1110F009001DBA7
:100B3000112301E009F101030AAA01A90CA8FFF79A
:100B4000E2FEDDE90C70002609F10105834647E06D
:100B500001204B4600904FF000470AAA01A90CA8BB
:100B6000FFF7D1FEDDE90DB00C995D46002610B906
:100B700009F101000D18B9EB050003D4C0F1FF36EF
:100B800009F10105A5EB09002BE0B9F1010F01DA2C
:100B90004FF001090020B9F1110F0090484601DD26
:100BA000112300E003460AAA01A90CA8FFF7ABFE37
:100BB000DDE90C704D4600268346207800070AD4F4
:100BC000AB4500DA5D4601A8012D04DD411911F89D
:100BD000011C302907D04F4502DA17F1040F04DA5F
:100BE000012082460FE06D1EEEE7002F02DCED1BB8
:100BF0003E4403E0781CA84200DD7D1CB81B00F1D8
:100C0000010A4FF000472078000703D4AA4501DB12
:100C10004FF0FF3A0021B7F1004F0DF143088DF876
:100C2000431024D002202B23002F01DA7F422D23F2
:100C30000A21021EA0F1010000DC5FB197FBF1FC6C
:100C400097FBF1F201FB1C7C17460CF1300C08F805
:100C500001CDEEE7A8F1010003702188090501D557
:100C6000452100E06521A0F1010800F8011C099868
:100C70000FA9A1EB0807FF1D00B10120411901EBED
:100C8000EA70A1693844081A401EA0612078C006A5
:100C900002D42046FFF7FEFB099828B1D4E90121D0
:100CA0009047206A401C20622078C00622D520464A
:100CB000FFF7F0FB1EE0002E04DBB34502DD01A8C8
:100CC000805D00E03020D4E901219047206A401C7B
:100CD0002062761CAAF101005FEA000A0AD100F046
:100CE00069F8C0680168405CD4E901219047206A36
:100CF000401C2062281EA5F10105DCDC07E0D4E9D8
:100D0000012118F8010B9047206A401C2062381E10
:100D1000A7F10107F3DC2046FFF7D2FB032011B057
:100D200041E60000074B70B50D467B4400F0AFF87C
:100D30000446284600F070F910B14FF0FF3070BD46
:100D4000204670BDDF56000010B5203AC0F00B8081
:100D5000B1E81850203AA0E81850B1E81850A0E8BF
:100D60001850BFF4F5AF5FEA027C24BFB1E8185019
:100D7000A0E8185044BF18C918C0BDE810405FEA89
:100D8000827C24BF51F8043B40F8043B08BF704705
:100D9000D20728BF31F8023B48BF11F8012B28BF0A
:100DA00020F8023B48BF00F8012B7047004870470D
:100DB0003C060020004870475C0600200048704751
:100DC0003C060020034640688C46002818BF884235
:100DD0003CBF03464068F8D318681844884207D0DF
:100DE0000CF1030020F00700001D411A521A0146C1
:100DF000081D0A60FFF7A4BA30B5B0F10A024FEA45
:100E0000900E71F100034EEA817EB0EB0E0061EBB3
:100E100091014FEA101E4EEA017E10EB0E0041EBED
:100E200011114FEA102E4EEA016E10EB0E0041EB4D
:100E300011214FEA104E4EEA014E10EB0E0041EB2D
:100E40001141401841F100014FEAD00040EA4170E1
:100E50004FEAD10110EB80054FEA810444EA907417
:100E600044EB01046D1944EB0404521BA3414FF001
:100E7000000348BF0A3200D530BD401C41F10001DB
:100E800030BD000001694A1C02610878704700B556
:100E90008FB0CDE901310021059105497944CDE9B3
:100EA000031011466846FFF749FB0FB000BD000074
:100EB000E5FFFFFF2DE9F0411F46044603260168C8
:100EC000072A01F4006004DB08B116A505E016A5A9
:100ED00003E008B115A500E015A521F01000206081
:100EE000A069C01EA0610FB1401EA0612046FFF79F
:100EF000D1FA4FB1D4E9012138469047206A401C0D
:100F00002062C01C206206E0206AFAE7D4E90121D1
:100F100015F8010B9047761EF8D22046FFF7D0FA5D
:100F2000BDE8F0814E414E006E616E00494E4600B4
:100F3000696E66002DE9F047814616468AB035484D
:100F400078440DC88DE80D0032487844801C03AC0D
:100F50000DC884E80D0041F69B300844372190FB12
:100F6000F1F290FBF1F5A5F1800501FB12041B3CA9
:100F700002D56442012000E00020DFF898A08046FE
:100F80000027FA44AAF1BE0A0EE0E0070AD0324672
:100F9000684607EB470101230AEB810100F08CFB57
:100FA0008DE8070064107F1C002CEED1194F7F44A0
:100FB000AE3F19E0E80715D007EB04100DF1180A51
:100FC00090E80E008AE80E00C068F04201D198193E
:100FD00008903246012306A903A800F06DFB03AB7D
:100FE00083E807006D10641C002DE3D14FF001036E
:100FF00032466946B8F1000F03A802D000F047FB63
:1010000001E000F059FBC9E90001C9F808200AB065
:10101000BDE8F08798700000007B00F0800070470A
:1010200010B500F037F8BDE8104000F02EB8754656
:10103000FFF7BCFEAE4605006946534620F00700A8
:10104000854618B020B5FFF739F9BDE820404FF0CC
:1010500000064FF000074FF000084FF0000B21F0A2
:101060000701AC46ACE8C009ACE8C009ACE8C0096F
:10107000ACE8C0098D46704710B50446AFF3008058
:101080002046BDE81040FFF704B9002801D004F065
:101090005DBF704710B5012805D0002103A000F006
:1010A00061F8012010BD09A1F8E70000534947523B
:1010B000544D454D3A204F7574206F662068656128
:1010C00070206D656D6F7279000000003A204865F0
:1010D0006170206D656D6F727920636F72727570CB
:1010E000746564004FF0013C50F8042B51F8043B48
:1010F0009A4221D1A2EB0C03934313EACC1317D1EC
:1011000050F8042B51F8043B9A4215D1A2EB0C0382
:10111000934313EACC130BD150F8042B51F8043B42
:101120009A4209D1A2EB0C03934313EACC13DBD010
:101130004FF00000704700BFD01A01BAB1FA81F138
:1011400001F0180122FA01F0CB40C1F12001DBB21D
:10115000C0B2C01A2CFA01F3D11A914311EAC3119B
:10116000E6D1704770B505460C460A2000E06D1CBC
:1011700004F0EDFE35B128780028F8D102E0641CB7
:1011800004F0E5FE14B120780028F8D1BDE87040E5
:101190000A2004F0DCBE5FEA400C08BF91F0000FAB
:1011A0004FEA8C234FEAC12243EA51514FEA1C50C7
:1011B00018BF00F5F0404FEA300018BF41F0004181
:1011C0005FEA6C5C00F02980BCF1FF3F08BF40F093
:1011D00080407047130C06BF12044FF0100C4FF004
:1011E000000C130E04BF12020CF1080C130F04BF05
:1011F00012010CF1040C930F04BF92000CF1020CCD
:10120000D30F04BF52000CF1010C11464FF0000245
:10121000A0F11F00A0EB0C00704711F0004F08BFB9
:10122000704731F000413FF4D5AF0B0C06BF090405
:101230004FF0100C4FF0000C0B0E04BF09020CF124
:10124000080C0B0F04BF09010CF1040C8B0F04BF39
:1012500089000CF1020CCB0F04BF49000CF1010C0A
:10126000CCF12003A0EB0C0022FA03F302FA0CF2FB
:1012700041EA030100F10100704720F07F4C80EA51
:10128000030023F07F47ACEB070303F57C5300F02A
:10129000004003F1FF032DE980494FEA154B09B4E3
:1012A0004FEA144325EA0B4E24EA03480FF20426C2
:1012B00006EB132749083E785FEA320203FB066714
:1012C000C7F5000707FB06F64FEA54374FEAD64644
:1012D00006F1020607FB066CCCF1005C4FEA1C47E6
:1012E0002CEA074C07FB06F40CFB06F504EB15464D
:1012F0004FEA961634BF00204FF000404FEAD13736
:1013000006FB07FC4FEA1C4C0CFB0BF7D21B03FB44
:101310000CF761EB07010CFB0EF7B0EB074072EB2B
:1013200017420CFB08F734BFA2EB0742B2EB0742AF
:1013300061EB17414FEA0C444FEA910706FB07FCAB
:101340004FEA1C4C0CFB0BF7B0EBC74072EB57326B
:1013500003FB0CF734BFA2EBC742B2EBC74261EB11
:1013600057310CFB0EF7B0EBC70072EB57720CFB5A
:1013700008F734BFA2EBC702B2EBC70261EB5771AB
:10138000039F4FEA816141EA921104EBCC044FEADA
:10139000D1374FEA826206FB07FC42EA90124FEA1D
:1013A00080604FEA1C4C0CFB0BF7D21B03FB0CF7C5
:1013B00061EB07010CFB0EF7B0EB074072EB174235
:1013C0000CFB08F734BFA2EB0742B2EB074261EB1C
:1013D00017414FEA8C554FEA910704EB9C2406FB1A
:1013E00007FC4FEA1C4C0CFB0BF7B0EBC74072EB51
:1013F000573203FB0CF734BFA2EBC742B2EBC74234
:1014000061EB57310CFB0EF7B0EBC70072EB577274
:101410000CFB08F734BFA2EBC702B2EBC70261EBCB
:10142000577115EB4C254FEA816141EA92114FEA61
:1014300082624FEAD13742EA901206FB07FC44F180
:1014400000044FEA80604FEA1C4C0CFB0BF7D21BE8
:1014500003FB0CF761EB07010CFB0EF7B0EB074049
:1014600072EB17420CFB08F734BFA2EB0742B2EB5A
:10147000074261EB174115EB1C154FEA813141EA38
:1014800092414FEA823242EA90424FEA80304FEA7C
:101490000C7644F1000448EA03434EEA0B484FF04F
:1014A000000EB2EB080C71EB030724BF624639460D
:1014B0004EEB0E0E4FF0000B0018524149414BEB22
:1014C0000B0BB2EB080C71EB03077BF1000B24BF95
:1014D000624639464EEB0E0E4FF0000B001852419B
:1014E00049414BEB0B0BB2EB080C71EB03077BF1A3
:1014F000000B24BF624639464EEB0E0E51EA02073E
:1015000018BF46F0010616EB0E7655F1000254F1B5
:10151000000103D5BDE88901BDE80088BDE8890167
:10152000BDE80048B619524141EB0101A3F10103A6
:10153000704780807F7E7D7C7B7A79787776767540
:101540007473727171706F6E6E6D6C6C6B6A6A69B8
:101550006868676666656464636362616160605F52
:101560005F5E5E5D5D5C5C5B5B5A5A5959585857CB
:101570005756565555555454535352525251515033
:1015800050504F4F4F4E4E4D4D4D4C4C4C4B4B4B86
:101590004A4A4A49494948484847474747464646CC
:1015A0004545454444444443434343424242424107
:1015B0004141002B9C4630D477002BD01CB54FEA1C
:1015C000370703B44FF010004FF01001BAF1000FCD
:1015D00006D0BCF1000FDCBF40F0080040F008016D
:1015E0004FF000000FBCBDE810400BF1010BBBF148
:1015F000010F08BF5FEA170722BF12F1010211F1C4
:1016000001014FF0004143F1000300F0004043EAC4
:1016100000007047F9D35708D0E746EA064613F1B1
:10162000400F4FEA16461FDD13F1200FDFBF1643B0
:101630000A46002120335B42BED0C3F1200746EAB0
:10164000064602FA07F74FEA164646EA0706C3F1CE
:10165000200722FA03F201FA07F721FA03F14FF00B
:10166000000342EA0702A7E746EA020646EA064600
:101670004FEA164646EA0106BCBF46EA0646360C65
:101680004FF000034FF000024FF0000194E72DE906
:10169000804C9A46934670B491E8380007C831EA06
:1016A000400C48BF34EA430C03D5FFF7E6FDFFF7D3
:1016B00080FFF0BCBDE8008C2DE9804C9A46934633
:1016C00070B491E8380007C810F0804F08BF13F0DD
:1016D000804F03D100F005F8FFF76BFFF0BCBDE8C9
:1016E000008C20F07F4780EA030023F07F4C07EB5B
:1016F0000C03A3F57C5300F00040A3F1FE0392F02D
:10170000000F00F0B38095F0000F00F077802DE916
:1017100001494FEA11404FEA144621EA004800FB14
:1017200006FC24EA064708FB06F607FB08F800FB60
:1017300007F718EB06484CEB164C4FEA124B18EB28
:1017400007484FEA15464CEB174022EA0B4E0BFBBD
:1017500006FC25EA06470EFB06F607FB0EFE0BFB12
:1017600007F71EEB064E4CEB164C4FF000061EEB37
:10177000074E4CEB174B18EB0B0840F1000018EB31
:101780000E0B58EB000840F100008F1A4FF00001DB
:101790003CBFC943661B14BFB5EB040C00213CBF22
:1017A000C943F61B4FEA17444EEA8E0E27EA04455A
:1017B0004FEA1C4704FB07622CEA074C05FB07F7BE
:1017C0000CFB05F604FB0CFC16EB074642EB17423C
:1017D00016EB0C4642EB1C421BEB060658EB0202D2
:1017E000414146EA9E0601D5BDE80189B61952413C
:1017F00041EB0101A3F10103BDE801894FEA144562
:101800004FEA114724EA054621EA074C05FB07F495
:1018100006FB07F70CFB06F105FB0CFC11EB07417F
:1018200044EB17444FEA124711EB0C4144EB1C44C4
:1018300022EA074C05FB07F206FB07F70CFB06F64E
:1018400005FB0CFC16EB074642EB174216EB0C4669
:1018500042EB1C456A1854F1000148BF7047B619A5
:10186000524141EB0101A3F10103704795F0000FD4
:1018700037D04FEA11424FEA144721EA024624EAE0
:10188000074C02FB07F106FB07F70CFB06F402FB13
:101890000CFC14EB074441EB17414FEA154714EBDE
:1018A0000C4441EB1C4125EA074C02FB07F506FB03
:1018B00007F70CFB06F602FB0CFC16EB074645EBA4
:1018C000174516EB0C4645EB1C42121951F100016D
:1018D00048BF7047B619524141EB0101A3F1010322
:1018E00070474FEA14454FEA114724EA054621EABA
:1018F000074C05FB07F106FB07F70CFB06F24FF060
:10190000000605FB0CFC12EB074241EB174112EB02
:101910000C4251EB1C4148BF7047921841EB01014A
:10192000A3F101037047FEE7014800F0F7B800009B
:10193000F8010020014800F0F1B800005802002032
:101940000D4902688A4201D20C4901E00B4920315D
:10195000D2B21423083AB2FBF3F2436C02F01F0236
:1019600023F003031944816404498031C1640121D7
:1019700091400165704700000804024000080240E1
:101980000179074A02EB81024265054A4432491E49
:10199000826501F01F0201219140C165704700007E
:1019A000FC080240124800B5016885B041F0807122
:1019B00001601048016821F00101016000214160CF
:1019C000016841F001010160406810B1012005B0DB
:1019D00000BD14216846FEF7B4FE0021684600F001
:1019E000B3FE00F0F5FE044908600020EFE70000B8
:1019F000FCED00E0001000E0540000200A4910B5A2
:101A00000A68D2070FD04A68084B094C1B68B3FB21
:101A1000F4F300FB0320904202D24A68521CFCD12E
:101A20004A688242FCD310BD001000E05400002040
:101A3000002D3101704772B6FEE710B590F82530E1
:101A400000210122022B03D00421C163012122E0E5
:101A500003681C6824F00E041C60836C1C6824F46A
:101A600080741C6003681C6824F001041C6090F8FA
:101A70004430046C03F01F0302FA03F36360D0E9FF
:101A800013345C60436D33B11C6824F480741C60B3
:101A9000D0E916345C6080F82520002280F82420EC
:101AA000084610BD70B590F825200024012123467A
:101AB000022A07D00422C26380F8251080F824305F
:101AC000012429E00268156825F00E0515600268FA
:101AD000156825F001051560826C156825F4807580
:101AE000156090F84420056C02F01F0201FA02F222
:101AF0006A60D0E913255560426D32B1156825F44E
:101B000080751560D0E91625556080F8251080F89D
:101B10002430816B01B18847204670BDF0B4016C60
:101B20000C6801680D6890F8442002F01F0604223A
:101B300002FA06F3234211D06B070FD50B689B0600
:101B400003D40B6823F004030B6090F8441001F0F9
:101B50001F018A40016C4A60016B1DE0022303FAF9
:101B600006F727424FF0000C4FF0010218D0AF07E4
:101B700016D50C68A40605D40C6824F00A040C6081
:101B800080F8252090F8441001F01F018B40016C73
:101B90004B6080F824C0C16A00291AD0F0BC084705
:101BA0000823B340234214D02B0712D50B6823F02F
:101BB0000E030B6090F84410036C01F01F0102FA51
:101BC00001F15960C26380F8252080F824C0416B80
:101BD000E2E7F0BC7047000070B504000CD02B4A5F
:101BE00021681420914209D2294A0A44B2FBF0F03C
:101BF0008000606427480AE0012070BD234A5242F9
:101C00000A44B2FBF0F08000606420480838206489
:101C1000022084F825000A6847F6F0708243D4E970
:101C200002031843D4E904352B431843A36918432E
:101C3000E3691843236A1843104308602046FFF7FE
:101C40007FFEA0680025B0F5804F00D16560A16CD3
:101C500020790860D4E9130141606068401E0328C0
:101C600008D82046FFF78CFE606D0560D4E91601A8
:101C7000416002E06565A565E565E563012084F8DE
:101C8000250084F82450002070BD000008040240A4
:101C9000F8FFFDBF0000024070B5044600F0E4F913
:101CA0000546601C02D004484068044400F0DCF99A
:101CB000401BA042FAD370BD000000202DE9F84F70
:101CC00000230126DFF828C10F278AE006FA03F473
:101CD00014EA01027ED023F003056544AA46D5F834
:101CE00008909D074FEA157E07FA0EF505EA090BE5
:101CF0000095B0F1904F05D03E4DA84205D14FF070
:101D000001081CE04FF0000819E03B4DA84202D149
:101D10004FF0020813E0394DA84202D14FF00308FA
:101D20000DE0374DA84202D14FF0040807E0354DD1
:101D3000A84202D14FF0050801E04FF0060808FA6A
:101D40000EF8D84526D1DFF8C080D8F8009029EAEF
:101D50000209C8F8009008F10408D8F8009029EAB0
:101D60000209C8F80090DFF8A08008F10C08D8F844
:101D7000009029EA0209C8F80090A8F10408D8F8F0
:101D800000509543C8F80050009ADAF8085095437F
:101D9000CAF80850D0F800804FEA4309032202FA3B
:101DA00009F248EA0208C0F80080DD0800EB85056A
:101DB000AA46D5F820804FEA43794FEAD96907FA55
:101DC00009F528EA0508CAF82080C5689543C5606A
:101DD000456800E004E0A54345608468944384605E
:101DE0005B1C31FA03F27FF471AFBDE8F88F00009D
:101DF000000001400004004800080048000C0048B2
:101E00000010004800140048000401402DE9F04F84
:101E1000DFF82092002301260324A9F1040B85B0EA
:101E20000F2709F1040AABF1040EFAE006FA03F5F4
:101E30002A407CD091F804C00CF0030CBCF1010FD7
:101E400002D0BCF1020F26D1D0F808C0CDF800C0F6
:101E50004FEA430C04FA0CF8CDF810C0DDF800C0CE
:101E60002CEA080CCDF800C0D1F80C80DDF810C0C9
:101E700008FA0CF8DDF800C048EA0C08C0F8088041
:101E8000D0F804C02CEA050C0D79C5F300159D406F
:101E900045EA0C0545600D79ED43AD070ED0C568E8
:101EA0004FEA430804FA08FC25EA0C05D1F808C0FB
:101EB0000CFA08FC4CEA050CC0F80CC00D7905F0D2
:101EC0000305022D16D1DD0800EB850CCDF808C006
:101ED000DCF820805D074FEAD56C07FA0CF528EA9C
:101EE00005080D6905FA0CF5DDF808C045EA080596
:101EF000CCF8205005684FEA430CCDF808C004FA2E
:101F00000CFC25EA0C0591F804C00CF00308DDF880
:101F100008C008FA0CF848EA0508C0F800804D68C7
:101F200015F4403F7CD0444DD5F860C000E077E028
:101F30004CF0010CC5F860C02D6E23F0030C05F0C9
:101F4000010500953D4D65440295AD684FEA837CDF
:101F50004FEA1C7807FA08FC25EA0C05B0F1904F0F
:101F600006D0DFF8DCC0604505D14FF0010C20E061
:101F70004FF0000C1DE0DFF8CCC0604502D14FF0FF
:101F8000020C16E0DFF8C0C0604502D14FF0030C30
:101F90000FE0DFF8B8C0604502D14FF0040C08E054
:101FA000DFF8ACC0604502D14FF0050C01E04FF006
:101FB000060C0CFA08FC4CEA050C029DC5F808C09A
:101FC000D9F80050CC46D1F8048095435FEAC82880
:101FD00000D51543CCF80050DAF80050D446D1F8BB
:101FE000048095435FEA882800D51543CCF800505B
:101FF000DBF80050DC46D1F8048095435FEA88386E
:1020000000D51543CCF80050DEF80050F446D1F866
:10201000048095435FEAC83800D51543CCF80050DA
:102020005B1C0A6832FA03F57FF400AF05B0BDE827
:10203000F08F000008040140001002400000014041
:102040000004004800080048000C00480010004848
:10205000001400480069084000D0012070470AB110
:102060008161704781627047014880687047000055
:102070000000002002488168426811448160704776
:102080000000002010B50024032000F077F80020A5
:1020900000F008F808B1012401E000F025F820461E
:1020A00010BD000070B50E4E05460024706898B152
:1020B0004FF47A71B1FBF0F00A490968B1FBF0F016
:1020C00000F0C9FF40B9102D06D200222946501E4B
:1020D00000F034F8356000E00124204670BD0000B7
:1020E000000000200C0000200C4808B5016E41F0F3
:1020F00001010166016E01F001010091816D41F065
:1021000080518165806D00F080500090052000F0C6
:1021100035F8BDE8084000F0A1B80000001002400A
:10212000002809DB00F01F020121914040098000D6
:1021300000F1E020C0F8001170470000F0B40E4B31
:102140001B680C46C3F30223C3F10705042D00D915
:102150000425191D072901D2002300E0DB1E0126FA
:1021600006FA05F1491E214099409E40761E164010
:102170003143F0BC03F011BA0CED00E0064900F069
:10218000070208684FF6FF03184040EA0220034A9E
:1021900010430860704700000CED00E00000FA05F5
:1021A0002B492C4B0A6832214A432B4940B1B0F5E8
:1021B000007F086829D020F4C06040F480602CE0E3
:1021C0000868C0F34120022804D051F8800F20F4A1
:1021D000807022E0D1F8800020F48070C1F8800087
:1021E000086820F4C06040F400700860B2FBF3F0AF
:1021F000401C00E0401E4A69520501D50028F9D173
:10220000486940050AD503207047C0F341200228E1
:1022100006D051F8800F40F48070086000207047AD
:10222000D1F8800040F48070C1F88000086820F484
:10223000C06040F400700860B2FBF3F0401C00E0A6
:10224000401E4A695205DBD50028F9D1D8E70000C5
:102250000C00002040420F000070004002488168DE
:1022600041F4804181607047007000402DE9F843DF
:10227000044600680026BB4D00035ED5A86D00270C
:10228000C00008D4A86D40F08050A865A86D012753
:1022900000F080500090DFF8D092D9F8001041F49F
:1022A0008071C9F80010FFF7DFFE804606E000BF2E
:1022B000FFF7DAFEA0EB080002282BD8D9F80000BF
:1022C000C005F5D5D5F8900010F4407014D0216DFC
:1022D000814211D0D5F89000D5F8901020F44070CC
:1022E00041F48031C5F89010D5F8901021F4803178
:1022F000C5F89010C5F89000C00711D0FFF7B4FEE4
:10230000804641F2883907E0FFF7AEFEA0EB0801F6
:10231000494501D903260BE0D5F890008007F3D595
:10232000D5F89000216D20F440700843C5F8900066
:102330001FB1A86D20F08050A8652078C00707D095
:10234000D5F88800616820F003000843C5F88800CC
:102350002078800707D5D5F88800A16820F00C0008
:102360000843C5F888002078400707D5D5F88800CD
:10237000E16820F030000843C5F8880020780007A5
:1023800007D5D5F88800216920F0C0000843C5F8BA
:1023900088002078C00607D5D5F88800616920F448
:1023A00040700843C5F888002078800607D5D5F826
:1023B0008800A16920F440600843C5F888002078AF
:1023C000400607D5D5F88800E16920F4405008435D
:1023D000C5F888002078000607D5D5F88800216A5E
:1023E00020F440400843C5F888002088C00507D580
:1023F000D5F88800616A20F440300843C5F88800A9
:102400002068800307D5D5F89C00A16A20F003005E
:102410000843C5F89C002088800507D5D5F88800BA
:10242000E16A20F440200843C5F888002088400570
:102430000FD5D5F88800216B20F440100843C5F86B
:102440008800206BB0F5801F03D1E86840F480104D
:10245000E860208800050FD5D5F88800616B20F46E
:1024600040000843C5F88800606BB0F5800F03D1C9
:10247000E86840F48010E8602088C0040FD5D5F8E3
:102480008800A16B20F040700843C5F88800A06B5D
:10249000B0F1807F03D1E86840F48010E8602088C4
:1024A0004FF0006180040ED5D5F88800E26B20F073
:1024B00040601043C5F88800E06B884203D1E868AB
:1024C00040F48010E860208840040ED5D5F88800DC
:1024D000226C20F040601043C5F88800206C8842D0
:1024E00003D1E86840F48010E860208800040FD52C
:1024F000D5F88800616C20F040500843C5F888008A
:10250000606CB0F1805F03D1E86840F48030E8602F
:102510002068C0030FD5D5F88800A16C20F040409A
:102520000843C5F88800A06CB0F1804F03D1E8687B
:1025300040F48030E860206840030FD5D5F89C0057
:10254000E16C20F440100843C5F89C00E06CB0F545
:10255000001F03D1E86840F48010E8603046BDE811
:10256000F883000000100240007000402DE9F047A1
:102570000E4605004FF0000725D0DFF8AC81D8F8F3
:10258000000000F00F00B0420CD2D8F8001021F08B
:102590000F013143C8F80010D8F8000000F00F0018
:1025A000B04210D12968614CC80741F2883A5AD02C
:1025B0006868DFF87C91032808D0022820682DD0B5
:1025C000400500282CDB0120BDE8F0872068800151
:1025D000F9D5E06800F00302E068C0F30310401C86
:1025E000032A19D0534A00BFB2FBF0F0E268C2F3ED
:1025F00006225043E268C2F34162521C5200B0FB13
:10260000F2F0484517D9A06810F0F00F0CD08807F9
:1026100011D5A86840B10EE0474AE5E78003D0E74E
:1026200000F0D6F8484506D9A06820F0F00040F048
:102630008000A0608027A068696820F0030008433C
:10264000A060FFF711FD814606E000BFFFF70CFD1B
:10265000A0EB090151453AD8A068696800F00C0068
:10266000B0EB810FF2D12868810714D5400703D55C
:10267000A06840F4E060A0602878000705D5A06855
:1026800020F4605040F4E060A060A068A96820F0E9
:10269000F000084304E0802F03D1A06820F0F00090
:1026A000A060D8F80010404601F00F01B14216D9E1
:1026B000016821F00F0131430160FFF7D5FC0746A7
:1026C00007E000BFFFF7D0FCC11B514501D9032033
:1026D0007AE7D8F8000000F00F00B042F2D1287875
:1026E000400705D5A068E96820F4E0600843A060D1
:1026F0002878000706D5A068296920F4605040EAD0
:10270000C100A06000F064F8A1680C4AC1F3031195
:10271000515C01F01F01C840094908600948006880
:10272000BDE8F047FFF7BEBC0020024000100240A9
:1027300000B4C4040024F40000127A004A7B0008AC
:102740000C000020000000200F2202600C4A936859
:1027500003F003034360936803F0F003836093681E
:1027600003F4E063C36092684FF4E06303EAD202CB
:1027700002610448006800F00F0008607047000024
:1027800000100240002002400548064900688968A0
:10279000054AC1F30221515C01F01F01C840704796
:1027A0000C000020001002405A7B00080548064932
:1027B00000688968054AC1F3C221515C01F01F011C
:1027C000C84070470C000020001002405A7B0008EF
:1027D000184910B58868C0F381021748012A0BD048
:1027E0008A684310C2F38102022A06D08A68C2F3C3
:1027F0008102032A03D0002010BD184610BDCA680C
:1028000002F00304CA68C2F30312521C032C02D064
:10281000B0FBF2F001E0B3FBF2F0CA68C968C2F3A2
:1028200006225043C1F34161491C4900B0FBF1F05D
:1028300010BD0000001002400024F4002DE9F84310
:1028400004007AD02078F84DC00747D0A868E9681E
:1028500000F00C0001F003010C2802D0082817D06A
:1028600001E0032914D06068B0F5803F17D0B0F5BF
:10287000A02F286817D020F480302860286820F422
:10288000802028606068E0B1FFF7EEFB064614E0A8
:102890002868800322D560680028D2D01EE028680E
:1028A00040F48030EDE740F480202860F7E700BF77
:1028B000FFF7DAFB801B642870D828688003F7D5FF
:1028C0000CE0FFF7D1FB064605E000BFFFF7CCFBAD
:1028D000801B6428F0D828688003F7D4207880070C
:1028E0004CD5A868E96800F00C0001F003010C2841
:1028F00002D004280DD001E002290AD0E0680028A7
:1029000028682BD040F480702860FFF7ADFB0646A6
:1029100019E02868400502D5E068002891D0686871
:10292000217C20F0FE4040EA01606860BF480068FA
:10293000FFF7B8FB002800D120E072E1FFF794FB1D
:10294000801B0228B8D828684005F7D56868217C24
:1029500020F0FE4040EA016068600FE020F48070E3
:102960002860FFF781FB064605E000BFFFF77CFB10
:10297000801B0228A0D828684005F7D420780007DB
:1029800029D560690028D5F8940013D040F00100E3
:10299000C5F89400FFF768FB064606E090E000BF2C
:1029A000FFF762FB801B022886D8D5F894008007C9
:1029B000F6D510E020F00100C5F89400FFF754FBB5
:1029C000064604E0FFF750FB801B022878D8D5F8B4
:1029D00094008007F6D42078400761D5A86D0026C2
:1029E000C00008D4A86D40F08050A865A86D0126ED
:1029F00000F0805000908E480168C90511D401682C
:102A0000804641F480710160FFF72EFB074604E029
:102A1000FFF72AFBC01B022852D8D8F80000C005D7
:102A2000F6D5A068012815D00528D5F8900016D055
:102A300020F00100C5F89000D5F8900020F00400C7
:102A4000C5F89000A06841F28838B8B1FFF70CFBD8
:102A500007460EE0D5F8900040F00100F0E740F0A6
:102A60000400C5F89000F5E7FFF7FEFAC11B4145E9
:102A700026D8D5F890008007F6D50CE0FFF7F4FAD9
:102A8000074604E0FFF7F0FAC11B414518D8D5F816
:102A900090008007F6D41EB1A86D20F08050A86584
:102AA0002078800629D5A0690028D5F8980013D091
:102AB00040F00100C5F89800FFF7D6FA064606E098
:102AC00075E000BFFFF7D0FA801B02286FD8D5F859
:102AD00098008007F6D510E020F00100C5F89800B6
:102AE000FFF7C2FA064604E0FFF7BEFA801B022891
:102AF0005DD8D5F898008007F6D4E069F0B3A968EE
:102B0000C1F3810103295DD00228286820F080707C
:102B1000286003D0FFF7A8FA04464BE0FFF7A4FAB9
:102B2000064604E0FFF7A0FA801B02283FD8286879
:102B30008001F7D4F4E908016FF00F0202EB0111F4
:102B40000843218A5204490802EB4151A26841EA34
:102B500002210843217D4FF07E42490802EB41618A
:102B60000843217B40EAC160E968324A11400843CA
:102B7000E860286840F08070286000E05EE0E86867
:102B800040F08070E860FFF76FFA044605E000BF90
:102B9000FFF76AFA001B022809D828688001F7D5D8
:102BA0004CE000BFFFF760FA001B022802D90320A7
:102BB000BDE8F88328688001F4D4E8681E4908401D
:102BC000E8603BE00128F3D0E868226A00F00301E6
:102BD000914226D1616A00F0F00209011039914258
:102BE0001FD1A26A00F4FE41B1EB022F19D194F873
:102BF0002C2000F07841B1EBC26F12D1218E00F48D
:102C0000C00249084905A1F50011914209D194F883
:102C1000341000F0C06049084906A1F100718142FA
:102C20000CD00120C4E7000000100240000000208A
:102C3000007000400C809F01FCFFEEFE0020B7E713
:102C400010B5040011D0022084F85D0020680168EE
:102C500021F040010160204600F07EF8002020664F
:102C600084F85D0084F85C0010BD012010BD70B5D3
:102C7000040009D0606A002540B125616561A56244
:102C800094F85D0040B10CE0012070BD6068B0F5C3
:102C9000827FF4D0E561F2E784F85C50204600F0D2
:102CA0006FF8022084F85D002068016821F040017F
:102CB0000160E1684FF4E062914201D9002001E037
:102CC0004FF48050B1F5706F02D0914200D0A562F0
:102CD000A188228901F4827102F404421143227C0A
:102CE00002F002021143227D02F001021143228B05
:102CF00002F400721143227F02F03802114394F86B
:102D0000202002F080021143228D02F40052114370
:102D100022681160A169042202EA114194F824207A
:102D200000F4805002F01002114394F8342002F0B5
:102D300008021143A28902F4706211430143206822
:102D400041602068C16921F40061C16125660120EC
:102D500084F85D00002070BD00680649884208D1F3
:102D60000548016E21F48051016638210348FEF7C1
:102D7000A5BF704700300140001002400004004829
:102D800010B586B0044614216846FDF7DAFC1249F6
:102D9000206888421DD11148016E41F480510166BE
:102DA000016E01F480510591C16C41F00201C164D2
:102DB000C06C694600F002000590382000900220A7
:102DC0000190002002900390052004900448FFF732
:102DD0001DF806B010BD0000003001400010024098
:102DE000000400482DE9FF5F1D46934604464FF05E
:102DF00001090E9EFFF738F9074694F85D006168F7
:102E0000012806D0B1F5827F39D1A168B1BB042871
:102E100035D1019800287CD0BBF1000FFBD0002DEC
:102E2000F9D094F85C00012829D04FF0010A84F809
:102E30005CA094F85D00042802D0052084F85D00B1
:102E40004FF00008C4F86080C4F840B0A4F84650C1
:102E5000A4F844500199A163E587A587C4F84C8084
:102E6000C4F85080E0684FF4E061884201D8012D39
:102E700009D92068426822F4805208E0FFE7022066
:102E800004B0BDE8F09F2068426842F4805242607E
:102E900020680268520603D4026842F040020260D1
:102EA000E0688842606846D908B1012D3BD1A06B2B
:102EB00001882068C160A06B801CA063E08F401E69
:102EC000E08730E02068816889070FD5E18F69B11C
:102ED000B9F1010F0AD1A16B0988C160A06B801CF8
:102EE000A063E08F401EE0874FF0000920688168F2
:102EF000C90711D0B4F8461071B1C068216C0880C0
:102F0000206C801C2064B4F84600401EA4F84600E3
:102F100000E09EE04FF00109FFF7A6F8C01BB042A9
:102F200001D3701C74D1E08F0028CBD1B4F84600D7
:102F30000028C7D175E008B1012D6BD1E08F0128C1
:102F4000A06B08D921680088C860A06B801CA063B2
:102F5000E08F801E07E0216800780873A06B401C9A
:102F6000A063E08F401EE08754E0206881688907F5
:102F70001AD5E18FC1B1B9F1010F15D1E18F012946
:102F8000A16B07D90988C160A06B801CA063E08F8A
:102F9000801E06E009780173A06B401CA063E08FDF
:102FA000401EE0874FF0000920688168C90728D0DB
:102FB000B4F8461029B3B4F84610012914D9C068F2
:102FC000216C0880206C801C2064B4F84600801EB0
:102FD000A4F84600B4F84600012810D820684168DB
:102FE00041F4805141600AE0007B216C0870206C44
:102FF000401C2064B4F84600401EA4F846004FF080
:103000000109FFF731F8C01BB04202D3701C01D098
:1030100012E08EB1E08F0028A7D1B4F84600002856
:10302000A3D13A463146204601F03BFC50B1202066
:10303000206684F85C800CE084F85DA084F85C80F5
:1030400003201DE784F85DA084F85C80206E0028D2
:10305000F7D0012014E710B5401EB0F1807F01D3F6
:10306000012010BD4FF0E02460610F21601702F0D5
:1030700094FA0020A06107202061002010BD704755
:103080007047704730B590F83C20012A45D00122A6
:1030900080F83C20CA688B6822F440721A434B685F
:1030A00022F480621A430B6822F400621A430B690F
:1030B00022F480521A434B6922F400521A430B6BDC
:1030C00022F480421A430B8B22F4702242EA03421C
:1030D000CB6922F080521A43114D03680024AB42A1
:1030E00005D0104DAB4202D00F4DAB4210D10D8D2B
:1030F00022F4700242EA05520D6A22F080722A43DD
:103100004D6A22F000722A43C96A22F000520A4333
:103110005A6480F83C40002030BD022030BD0000E1
:10312000002C0140003401400050014070477047BE
:1031300070470000F0B590F83C20012A43D00125EB
:1031400080F83C50022280F83D2003685A689C6851
:103150001E4E1F4FDFF87CC0B34203D0BB4201D0EC
:10316000634504D122F4700E4A6842EA0E02DFF889
:1031700068E002EA0E02D1F800E04EEA020EC3F85F
:1031800004E00268B24212D0B2F1804F0FD0134B6C
:103190009A420CD0124B9A4209D0124B9A4206D056
:1031A000BA4204D0104B9A4201D0624504D18968DA
:1031B00024F080031943916080F83D50002180F88D
:1031C0003C100846F0BD0220F0BD0000002C01407C
:1031D00000340140005001408FFFFFFD000400401B
:1031E00000080040000C00400040014010B50446BB
:1031F000022249B104290ED0082913D094F84700BF
:10320000012816D0012010BD94F844000128F9D1FE
:1032100084F844200FE094F845000128F2D184F8A6
:10322000452008E094F846000128EBD184F84620B8
:1032300001E084F847200422206801F0E6FC2068C1
:10324000416C41F40041416413492068884214D024
:10325000B0F1804F11D0114988420ED010498842F8
:103260000BD01049884208D00F49884205D00F4939
:10327000884202D00E49884207D181680D4A114028
:10328000062906D0B1F5803F03D0016841F0010165
:103290000160002010BD0000002C0140000400402F
:1032A00000080040000C0040003401400040014094
:1032B0000050014007000100704710B5040003D022
:1032C00094F83D0010B107E0012010BD002084F803
:1032D0003C00204600F022F8022084F83D00211D29
:1032E000206801F013FC012084F8480084F83E00B7
:1032F00084F83F0084F8400084F8410084F84200DC
:1033000084F8430084F8440084F8450084F84600BB
:1033100084F8470084F83D00002010BD08B5114A2C
:1033200001681148914208D1016E41F400610166C3
:10333000006E00F40060009008BD0C4A9142FBD181
:10334000816D41F004018165806D002200F0040070
:10335000009011461E20FEF7F1FEBDE808401E2039
:10336000FEF7DEBE002C01400010024000080040C5
:1033700090F83D10012901D001207047022180F80A
:103380003D100168CA6842F00102CA600068134932
:10339000884214D0B0F1804F11D0114988420ED02C
:1033A000104988420BD01049884208D00F49884202
:1033B00005D00F49884202D00E49884207D1816862
:1033C0000D4A1140062906D0B1F5803F03D00168AF
:1033D00041F001010160002070470000002C014015
:1033E0000004004000080040000C00400034014090
:1033F00000400140005001400700010070B5044644
:1034000090F83C00002501281CD0012684F83C607F
:10341000022084F83D0022689068334B184020F465
:103420007F4090600868B0F5005F2ED016DC402821
:1034300049D009DCD0B1102818D0202816D0302867
:1034400049D113E0022070BD50282AD0602830D026
:1034500070280FD0B0F5805F3DD13DE010F00F0F28
:1034600039D10111A1F58031072934D822680146EC
:10347000104625E0CB68D1E90121206801F0D2FB9C
:103480002068816841F0770109E0CB68D1E901212A
:10349000206801F0C7FB2068816841F480418160A9
:1034A0001AE0CA684968206801F090FD5021206840
:1034B00006E0CA684968206801F099FD602120682B
:1034C00001F0BAFB08E0CA684968206801F07EFD97
:1034D00040212068F4E7012584F83D60002084F84D
:1034E0003C00284670BD000088FFCEFF70472DE9E4
:1034F000F04104460068C66805694FF00007A90757
:1035000013D5B10711D5F91E01610120207720687C
:1035100080698007204602D0FFF7E8FF04E000F052
:1035200001F9204600F0C3F92777680716D5700720
:1035300014D521686FF0040008610220207720680C
:10354000806910F4407F204602D0FFF7CFFF04E0EF
:1035500000F0E8F8204600F0AAF92777280715D5EB
:10356000300713D521686FF0080008610420207728
:103570002068C0698007204602D0FFF7B7FF04E04B
:1035800000F0D0F8204600F092F92777E80616D52B
:10359000F00614D521686FF010000861082020772C
:1035A0002068C06910F4407F204602D0FFF79EFFDC
:1035B00004E000F0B7F8204600F079F92777E80733
:1035C00008D0F00706D021686FF00100086120469E
:1035D00000F0F8F9280601D4A80408D5300606D56D
:1035E00021686FF4025008612046FFF749FDE805A5
:1035F00008D5300606D521686FF480700861204632
:10360000FFF73DFD680608D5700606D521686FF006
:1036100040000861204600F043FBA80608D5B0062C
:1036200006D521686FF0200008612046FFF729FDCC
:10363000E80208D5F00206D521686FF48010086111
:103640002046FFF774FDA80208D5B00206D5216810
:103650006FF4001008612046FFF768FD680208D586
:10366000700206D521686FF4800008612046FFF7DC
:103670005FFD28020AD5300208D521686FF40000EA
:1036800008612046BDE8F041FFF716BEBDE8F081B5
:10369000F0B587B0044614216846FDF752F81E497C
:1036A0002068884236D11D48C16C41F00201C164D6
:1036B000C16C01F002010591C16C41F00101C164CE
:1036C000C06C022500F0010005904FF4C04000904E
:1036D0000024CDE901540626114FCDE90346694681
:1036E0003846FEF793FBA8030090CDE9015404206F
:1036F000CDE9034069463846FEF788FB4FF4E060A9
:103700000090CDE90154CDE9034669464FF0904061
:10371000FEF77CFB07B0F0BD002C0140001002401A
:1037200000040048704770B5044690F83C0000263D
:103730000D4601280BD0012084F83C000C2A4AD009
:1037400007DC82B1042A20D0082A06D131E0022009
:1037500070BD102A53D0142A63D00126002084F8AB
:103760003C00304670BD206801F070FA2068816925
:1037700041F0080181612068816921F004018161C3
:10378000206881692A69114311E0206801F0B4FAC8
:103790002068816941F4006181612068816921F4B8
:1037A00080618161206881692A6941EA0221816121
:1037B000D4E7206801F0F0FA2068C16941F00801FF
:1037C000C1612068C16921F00401C1612068C1693B
:1037D0002A69114311E0206801F02EFB2068C169BD
:1037E00041F40061C1612068C16921F48061C16157
:1037F0002068C1692A6941EA0221C161AEE72068F7
:1038000001F06AFB2068016D41F008010165206844
:10381000016D21F0040101652068016D2A691143E1
:1038200011E0206801F094FB2068016D41F4006113
:1038300001652068016D21F4806101652068016DDA
:103840002A6941EA0221016588E710B5040003D026
:1038500094F83D0010B107E0012010BD002084F86D
:103860003C00204600F022F8022084F83D00211D93
:10387000206801F04BF9012084F8480084F83E00EC
:1038800084F83F0084F8400084F8410084F8420046
:1038900084F8430084F8440084F8450084F8460026
:1038A00084F8470084F83D00002010BD7047704741
:1038B00070B50446022269B1042912D0082917D034
:1038C0000C291CD0102921D094F84300012824D0C1
:1038D000012070BD94F83E000128F9D184F83E2003
:1038E0001DE094F83F000128F2D184F83F2016E053
:1038F00094F840000128EBD184F840200FE094F8C0
:1039000041000128E4D184F8412008E094F8420005
:103910000128DDD184F8422001E084F8432001220F
:10392000206801F065F91D4920681D4A1D4B1E4D98
:1039300088420BD0904209D0984207D01B4EB0422B
:1039400004D01B4EB04201D0A84203D1466C46F4CD
:10395000004646642068884211D0B0F1804F0ED0F6
:10396000144988420BD01449884208D01349884230
:1039700005D0904203D0984201D0A84207D1816877
:103980000F4A1140062906D0B1F5803F03D00168E7
:1039900041F001010160002070BD0000002C0140D9
:1039A000003401400040014000500140004401400B
:1039B000004801400004004000080040000C0040A6
:1039C000070001002DE9F041A8492DED028B0068A8
:1039D00088427DD1A648A94FA94C00789FEDA58AC1
:1039E000DFEDA58A3B7894ED060AA64EA64D4FF072
:1039F000000830286DD01BDC122871D020286AD036
:103A0000212865D1A14A022B50689168126875D0AF
:103A1000032B5DD100EE102A01EE100A00EE901A81
:103A2000B1EE400ABDEC028BBDE8F04103F09EB957
:103A300031286AD042284BD184ED0B0A02F008FDF0
:103A400084ED060AD4ED0B0A30EE600A84ED0C0A10
:103A500020EE080A00F0A2FC94F9000000EE900AA3
:103A6000F8EEE00A20EE200A84ED070A02F0AAFC34
:103A700084ED080A387801282AD1854894ED0D0A8A
:103A8000C16800EE901AF4EEC00AF1EE10FA02DD01
:103A900010EE101AC16094ED011A016930EE410A6E
:103AA00000EE901AF4EEC00AF1EE10FA02D210EE17
:103AB000101A0161C16896ED010A00EE901A754A6C
:103AC00070EE600AF0EEE00A10EE903A934203E0E6
:103AD00062E078E004E03AE000697DDC3060A1E07B
:103AE000022B59D16C48016801EE101A41688068B8
:103AF00000EE901A00EE100A5FE0FFE701EE100AF8
:103B000000EE901A00EE102A8CE7644C022BA2689B
:103B1000E1686068246811D0032B3DD100EE104AA3
:103B200001EE902A01EE101A00EE900AB1EE400A62
:103B3000BDEC028BBDE8F04102F064BA01EE902AC0
:103B400001EE101A00EE900A00EE104AF0E784ED44
:103B50000B0A02F07DFC84ED060AD4ED0B0A30EE70
:103B6000600A84ED0C0A20EE080A00F017FC94F9B4
:103B7000000000EE900AF8EEE00A20EE200A84ED44
:103B8000070A02F01FFC84ED080A3878022807D0E3
:103B9000032801D102203870BDEC028BBDE8F08112
:103BA00094ED070A384885ED010A00F037FE95EDDF
:103BB000020A94ED081AF0EE680ABDEC028BBDE82B
:103BC000F04102F0AFBF84ED0B0A02F041FC84ED3E
:103BD000060AD4ED0B0A00E019E030EE600A84ED2D
:103BE0000C0A20EE080A00F0D9FB94F9000000EE60
:103BF000900AF8EEE00A20EE200A84ED070A02F0AF
:103C0000E1FB84ED080A38780228C5D10AE000EE0D
:103C1000900A30EE600AB0EEC00A10EE100A904230
:103C200000DC316094ED070A174885ED010A00F0C9
:103C3000F5FD95ED020A94ED081AF0EE680A02F01F
:103C400071FF6088401C80B260800528A4D3A4F86E
:103C5000028094ED060A0B4886ED010A00F0DEFDB5
:103C600096ED020A85ED000A96E700000008004084
:103C70005F00002000007A44000000006000002087
:103C80001400002010060020E40500201F0500207D
:103C90009A050020CDCC4C3DE80400204E050020C4
:103CA000704790F88410012918D0012180F8841001
:103CB0002421C0F8881001680A680B6823F001030A
:103CC0000B6022F000510022426603681960202137
:103CD000C0F8881080F88420104670470220704792
:103CE0007047704770B5044690F8840001281DD0D5
:103CF000012084F884002420C4F888002068056826
:103D0000026822F0010202602068826822F060628C
:103D10000A438260204601F07DF92068056020207A
:103D2000C4F88800002084F8840070BD022070BDB3
:103D300070B5044690F8840001281DD0012084F855
:103D400084002420C4F8880020680568026822F0F6
:103D5000010202602068826822F060420A438260A9
:103D6000204601F057F9206805602020C4F888003B
:103D7000002084F8840070BD022070BD7047704739
:103D8000704700002DE9F04103680446D8691968BE
:103D90009A6840F60F0528424FF000054FF00206E2
:103DA0000AD187067ED501F0200702F0805C57EA31
:103DB0000C0777D0616F42E1B64FDFF8DCC21740E5
:103DC00001EA0C0C57EA0C0C6CD05FEAC07C0CD0FA
:103DD0005FEAC15C09D54FF0010CC3F820C0D4F8EC
:103DE000903043F00103C4F89030830709D5D3071E
:103DF00007D023681E62D4F8903043F00403C4F85F
:103E0000903043070AD5D30708D0266804233362CD
:103E1000D4F8903043F00203C4F8903003070CD577
:103E200001F020033B4308D0266808233362D4F80E
:103E3000903043F00803C4F8903003050BD54B01D4
:103E400009D526684FF400633362D4F8903043F00C
:103E50002003C4F89030D4F89030002B3DD0800679
:103E600009D501F0200002F08051084303D0616FB2
:103E700009B120468847D4F890002168896849062E
:103E800002D410F0280F2AD0204601F0A7F92068AC
:103E9000806840061ED52068083050E8001F21F0D9
:103EA000400100E021E040E80012002AF3D1D4F8FC
:103EB000800078B179498163D4F88000FDF7F2FD84
:103EC00000280AD0D4F88000816B00E02046BDE8CD
:103ED000F04108472046FFF753FFBDE8F081204638
:103EE000FFF74EFFC4F89050F7E7D4F86CC02027D6
:103EF000BCF1010F7ED15FEAC06C7BD55FEAC16C7B
:103F000078D51020186220688068400651D5D4F812
:103F100080100A6850680004000C3ED0B4F85C3091
:103F200083423AD9A4F85E000868006880062CD461
:103F3000216851E8000F20F4807041E80002002A57
:103F4000F6D12068083050E8001F21F0010140E858
:103F50000012002AF5D12068083050E8001F21F037
:103F6000400140E80012002AF5D1C4F88C70E566E3
:103F7000216851E8000F20F0100041E80002002AFB
:103F8000F6D1D4F88000FDF758FD2667B4F85C0040
:103F9000B4F85E10401A81B207E0B4F85C108142B8
:103FA0009BD11068800698D526672046FFF798FEBB
:103FB00093E7B4F85C00B4F85E10401A81B2B4F82C
:103FC0005E00002889D0002987D0226852E8000FBF
:103FD00020F4907042E80003002BF6D12D4BDB4318
:103FE0002068083050E8002F1A4040E8002CBCF14F
:103FF000000F00E00EE0F3D1C4F88C70E566656751
:10400000206850E8002F22F0100240E80023002B27
:10401000F6D1C9E7C60209D5560207D54FF480107C
:1040200018622046BDE8F041FFF7A9BE03060AD595
:1040300001F0800302F40002134304D0A16F0029B1
:104040007FF444AF49E7420611D54A060FD5204612
:10405000016851E8002F22F0400241E80023002BC4
:10406000F6D1C0F88870856700F095F935E702024F
:1040700006D54A0004D52046BDE8F041FFF77EBED4
:10408000C00195D5002993DA2046BDE8F041FFF73D
:1040900028BE00000100001020010004CD510008DE
:1040A00010B5040003D0D4F8880010B107E0012057
:1040B00010BD002084F88400204600F027F824205A
:1040C000C4F888002068016821F001010160A06A3D
:1040D00010B1204600F0C0FF204601F0A9F80128E9
:1040E000E6D02068416821F49041416020688168F1
:1040F00021F02A0181602068016841F0010101601E
:104100002046BDE8104001F00BB80000F0B59BB0B0
:104110000646142115A8FCF714FB54216846FCF749
:1041200010FB3249306888425DD101200024CDE97E
:1041300000046846FEF79AF808B1FDF77CFC2C48AD
:10414000016E41F480410166016E01F480411A91D3
:10415000C16C41F00201C164C06C15A900F00200FD
:104160001A90C02015900220CDE916040720CDE951
:1041700018402048FDF74AFE204D1F488027286040
:104180001820C5E90104C5E903476C61B801AC61B9
:10419000C5E907402846FDF71FFD08B1FDF74BFCB8
:1041A000C6F88050AE62154D134860351430286053
:1041B0001920686005F10801102081E891006C6108
:1041C000AC61EC6128462C62FDF706FD08B1FDF7F5
:1041D00032FCF567032211462520AE62FDF7AEFFE3
:1041E0002520FDF79DFF1BB0F0BD00000038014009
:1041F000001002400004004808000240F8010020BE
:104200002DE9F84F0446D0F88C009B4616460D4623
:10421000202802D00220BDE8F88FC5B1BEB100272A
:10422000C4F890702220C4F88C00E7662034FDF7B3
:104230001BFFA6878246E68754F8180C4FF480537C
:10424000FF21203C984207D1226912B119E00120D8
:10425000E1E740F2FF1114E07F2280B1B0F1805F0E
:1042600012D0A4F8607000BFB4F860704FF020085E
:10427000984201D1206970B12E4600250CE02669D4
:1042800036B9A4F86010EFE7216909B13F21F8E7DA
:10429000A4F86020E8E7002607F0FF09B4F85E0004
:1042A000F0B15346002220212046CDF800B001F0A5
:1042B0000BF918B1C4F88C800320ACE72068406A81
:1042C00056B100EA090006F8010B00BFB4F85E0021
:1042D000401EA4F85E00E1E7384025F8020BF5E740
:1042E000C4F88C80002096E72DE9F8430446D0F806
:1042F0008800984616460D46202802D00220BDE8C8
:10430000F883A5B19EB10020C4F890002120C4F824
:1043100088001834FDF7A8FEA6878146E68754F882
:10432000100C2027183CB0F5805F02D003E001207C
:10433000E5E7206910B12E46002510E000260EE0CA
:104340008021204601F0C0F8C0B9DEB116F8010B9B
:1043500021688862B4F85600401EA4F85600B4F8EC
:1043600056004B464FF00002CDF800800028E7D100
:104370004FF04001204601F0A7F840B1C4F8887022
:104380000320BCE735F8020BC0F30800E0E7C4F8EF
:1043900088700020B3E77047FEE7000010B510EE0C
:1043A000100A2DED028B03F03FFB9FED0F1B53EC2A
:1043B000112B03F067F80E4C41EC180B206803F04A
:1043C00033FB9FED0C1B53EC112B03F05BF853EC0C
:1043D000182B02F079FD02F045FD00EE100A84ED85
:1043E000000ABDEC028B10BD9A9999999999B93F31
:1043F00064000020CDCCCCCCCCCCEC3F114808B52F
:10440000816C41F004018164816C01F00401009130
:10441000816C41F001018164806C012200F0010097
:10442000009002210B20FDF789FE0B20FDF778FE9E
:10443000012202210C20FDF781FEBDE808400C207E
:10444000FDF76EBE001002402DE9F04186B0142148
:104450006846FCF776F92E48C16C41F00401C1644E
:10446000C16C01F004010591C16C41F02001C164EF
:10447000C16C01F020010591C16C41F00101C164E2
:10448000C16C01F001010591C16C41F00201C164F0
:10449000C06C204E00F002004FF4C0440590012291
:1044A00021463046FDF7DBFD4FF0904800226021A9
:1044B0004046FDF7D4FD0122D70339464046FDF7BB
:1044C000CEFD009401240025694630460194CDE9D3
:1044D0000245FDF79BFC202002268DE8710069460D
:1044E0004046FDF793FC402003958DE85100694656
:1044F0004046FDF78BFC0320CDE90250CDE9007466
:1045000069464046FDF782FC06B0BDE8F081000038
:104510000010024000080048124810B51049016020
:104520004FF48271416000214FF4E062C0E9021251
:104530004FF400720161C0E905122022C0E9072191
:1045400007224162C0E90A1201634163FEF78FFB53
:10455000002803D0BDE81040FDF76DBA10BD000083
:10456000003001406800002010B59CB00024199470
:104570001A9417941894149415941C210DA8169449
:10458000FCF7DFF834216846FCF7DBF834483349A0
:10459000C0E9001442F23311C0E9024180210461F4
:1045A000C0E90541FEF789FE08B1FDF744FA4FF472
:1045B0008050179017A92A48FEF720FF08B1FDF791
:1045C0003AFA2748FFF741F908B1FDF734FA149495
:1045D000159414A922481694FEF7ACFD08B1FDF716
:1045E0002AFA6020CDE90D040F94109411941294CE
:1045F00000220DA91A481394FFF795F808B1FDF7AA
:104600001AFA04220DA91648FFF78DF808B1FDF734
:1046100012FA08220DA91248FFF785F808B1FDF734
:104620000AFA00944FF40050CDE9044003940003CB
:10463000CDE9084001940294069407940A940B94DF
:10464000694607480C94FEF71DFD08B1FDF7F3F924
:104650000348FFF71DF81CB010BD0000002C0140FE
:10466000CC00002010B588B00024184800940194B4
:104670000294039404940594134906940160102154
:10468000C0E9011442F20F71C0E903148021816175
:10469000FEF713FE08B1FDF7CEF94FF480500090FD
:1046A00069460A48FEF7AAFE08B1FDF7C4F904946A
:1046B00004A906480694FEF73DFD002801D0FDF749
:1046C000BAF908B010BD0000000800401801002031
:1046D000184810B5164901604FF4E13141600021DE
:1046E00081600C22C160C0E904128161C161016274
:1046F00041628162FFF7D4FC08B1FDF79CF900210B
:104700000C48FFF715FB08B1FDF795F900210948A2
:10471000FFF7E8FA08B1FDF78EF90648FFF7C1FA8E
:10472000002803D0BDE81040FDF785B910BD00009A
:104730000038014064010020FEE7000010B510A021
:10474000FBF79CFE00211148FFF7B2F804210F4847
:10475000FFF7AEF808210D48FFF7AAF800210B4833
:10476000FEF744FD04210948FEF740FD08210748F3
:10477000FEF73CFDBDE8104005A0FBF77FBE000042
:104780004D4F543A20496E69740D0A00CC00002048
:104790004D4F543A20456E61626C652064726976B3
:1047A00065722E0D0A000000FEE7000015489FED1F
:1047B000140AF3EE0B0A80ED030A9FED130A80ED55
:1047C000040A9FED120A80ED050AC0ED090AFBEE0E
:1047D0000B0AC0ED0A0A2C30F7EE000AC0ED030AFE
:1047E00080ED040A9FED0A0A80ED050A9FED090A93
:1047F00080ED090A9FED080A80ED0A0A7047000063
:10480000CDCC4C3EE40500200AD7A33B00000000BD
:104810000AD7233C6666BC426666BCC290ED061AA7
:1048200080ED071A90EC020A30EE600A80ED060A6D
:10483000D0ED041AF5EEC01AF1EE10FA04D0D0ED66
:10484000080A70EE800A01E0DFED140AC0ED080AE4
:10485000D0ED030A90ED082A60EE800A30EE410A9E
:1048600090ED051A41EE820A41EE000AC0ED020AFF
:1048700090ED090AF4EEC00AF1EE10FA01DD80EDC8
:10488000020AD0ED020A90ED0A0AF4EEC00AF1EE37
:1048900010FA01D280ED020A70470000000000000B
:1048A0007047F8B515460E460B46009204460022A6
:1048B0004FF4C05100F01AF888B933460022802125
:1048C0002046009500F082F848B9334600224FF4A4
:1048D000C0612046009500F009F8002804D0206E41
:1048E00040F0200020660320F8BD00002DE9FE4FB7
:1048F0004FF0000A984617460E4604460C9D8DF868
:1049000004A0FDF7B1FB411BA8EB0105FDF7ACFBD3
:10491000814620684FF4C06B0C3002902A48006832
:10492000C0EBC00000EB8000000D6843009043E046
:104930005E4506D12FB9029800788DF804009DF8E5
:104940000400B8F1FF3F37D0FDF78EFBA0EB090064
:10495000A84203D215B1009858B32BE020684168F3
:1049600021F0E00141606068B0F5827F0BD1A06862
:10497000B0F5004F02D0B0F5806F04D12068016817
:1049800021F040010160A06AB0F5005F09D1206804
:10499000016821F4005101602068016841F4005170
:1049A0000160012084F85D0084F85CA00320BDE86C
:1049B000FE8F0025401E0090206880683040B8427D
:1049C000B6D10020F3E700000C0000202DE9F843E9
:1049D0001E46914688460446089DFDF745FB401B50
:1049E000351AFDF741FB074625480068C0F3CB3078
:1049F000684338E0701C37D0FDF736FBC01BA84277
:104A000003D215B1009860B32CE02068416821F012
:104A1000E00141606068B0F5827F0BD1A068B0F51D
:104A2000004F02D0B0F5806F04D12068016821F0FA
:104A300040010160A06AB0F5005F09D120680168FB
:104A400021F4005101602068016841F400510160C7
:104A5000012084F85D00002084F85C000320BDE89C
:104A6000F8830025401E00902068816838EA010024
:104A700004D000214945BDD10020F0E70121F9E72C
:104A80000C0000207047FDF7F5BA10B594B038213E
:104A90006846FBF756FE14210EA8FBF752FE0020D5
:104AA000FDF77EFB0120009000040190022003240A
:104AB000CDE907045521CDE909010B900C900D902B
:104AC0006846FDF7BBFE08B172B6FEE70F20CDE9E0
:104AD0000E04002010901190129004210EA8FDF7F2
:104AE00045FD002801D072B6FEE714B010BD0000ED
:104AF0000248016841F470010160704788ED00E0F0
:104B00000148FEF7F4BC0000180100202DE9F04F29
:104B100002682E4B2E4E2F4FDFF8BCC02F4C304D6D
:104B20004FF0804B98420BD0584509D0B04207D087
:104B3000B84205D0604503D0A04201D0A84204D1BC
:104B400022F070084A6842EA0802DFF89880DFF82D
:104B50009890DFF898A0984211D058450FD0B042F5
:104B60000DD0B8420BD0604509D0A04207D04045D7
:104B700005D0484503D0504501D0A84203D122F4C6
:104B80004076CA6832434E6922F0800232430260A6
:104B90008A68C2620A688262984209D0A04207D03D
:104BA000404505D0484503D0504501D0A84201D129
:104BB00009690163012141610169C90703D00169E4
:104BC00021F001010161BDE8F08F0000002C0140DF
:104BD0000004004000080040000C00400034014088
:104BE00000500140004001400044014000480140A5
:104BF00010B501F01F030121046A99408C4304623F
:104C0000016A9A401143016210BD10B501F00F0313
:104C10000421046A99408C430462016A9A4011435A
:104C2000016210BD10B5846842EA032224F47F4477
:104C30000A432243826010BD8268034B1A400A4334
:104C400042F00701816070478FFFCFFF2DE9F047E9
:104C5000056A026A22F001020262436882691F4CFF
:104C600025F0020522400C6822F0030214438A68F2
:104C70001C4E2A431A4D1C4FDFF870C0DFF87090AD
:104C8000DFF870A0A84209D0B04207D0B84205D0E2
:104C9000604503D0484501D0504506D122F00808B0
:104CA000CA6842EA080222F00402A84209D0B042CF
:104CB00007D0B84205D0604503D0484501D05045E3
:104CC00005D14D6923F440731D438B692B43436029
:104CD0008461496841630262BDE8F0878FFFFEFF8F
:104CE000002C0140003401400040014000440140DC
:104CF0000048014000500140F0B5056A026A22F008
:104D000010020262426883691C4C1E4E23400C68EC
:104D100023F4407343EA042425F020038D681A4FDE
:104D200043EA0513164DA84203D0B04201D0B84261
:104D300007D1D1F80CC023F0800343EA0C1323F011
:104D40004003A8420CD0B0420AD0104DA84207D070
:104D50000F4DA84204D00F4DA84201D0B84207D150
:104D60004D6922F4406242EA85028D6942EA850279
:104D700042608461496881630362F0BDFF8FFFFE7A
:104D8000002C01400034014000500140004001402F
:104D90000044014000480140F0B5056A026A22F46F
:104DA000807202624368C2691C4C1E4E22400C682D
:104DB00022F00302144325F400728D681A4F42EA70
:104DC0000522174DA84203D0B04201D0B84207D106
:104DD000D1F80CC022F4006242EA0C2222F4806274
:104DE000A8420CD0B0420AD0104DA84207D0104DB6
:104DF000A84204D00F4DA84201D0B84207D14D6956
:104E000023F4405343EA05138D6943EA05134360D5
:104E1000C4614968C1630262F0BD00008FFFFEFFFC
:104E2000002C01400034014000500140004001408E
:104E30000044014000480140F0B5056A026A22F4CE
:104E4000805202624268C3691C4C1E4E23400C68AB
:104E500023F4407343EA042425F400538D681A4F69
:104E600043EA0533164DA84203D0B04201D0B84200
:104E700007D1D1F80CC023F4004343EA0C3323F4E8
:104E80008043A8420CD0B0420AD0104DA84207D0AF
:104E90000F4DA84204D00F4DA84201D0B84207D10F
:104EA0004D6922F4404242EA85128D6942EA851238
:104EB0004260C461496801640362F0BDFF8FFFFE78
:104EC000002C0140003401400050014000400140EE
:104ED000004401400048014030B5056A026A22F4EE
:104EE000803202624268036D124C23400C681C43FE
:104EF00025F400330D8943EA05430F4DA8420ED037
:104F00000E4DA8420BD00E4DA84208D00D4DA84220
:104F100005D00D4DA84202D00C4DA84204D14D69D8
:104F200022F4803242EA05224260046549688164C5
:104F3000036230BD8FFFFEFF002C014000340140B2
:104F40000040014000440140004801400050014041
:104F500030B5046A026A22F4801202624268036D6C
:104F6000134D24F400142B400D6843EA05230D89EA
:104F700044EA05540F4DA8420ED00F4DA8420BD065
:104F80000E4DA84208D00E4DA84205D00D4DA842A6
:104F900002D00D4DA84204D14D6922F4802242EA8C
:104FA0008522426003654968C164046230BD000027
:104FB000FF8FFFFE002C0140003401400040014003
:104FC00000440140004801400050014010B5036A10
:104FD000046A24F001040462846924F0F00444EAC1
:104FE000021423F00A020A438461026210BD10B564
:104FF000036A046A24F010040462846923F0A003A5
:1050000024F4704444EA023243EA011182610162ED
:1050100010BD000030B5416EB9B102689168926868
:10502000C1F342610B4B520F9C5CE50003F1080495
:10503000A25CB5FBF2F2A0F86A205A5C615CD20077
:10504000B2FBF1F1A0F8681030BD0121A0F86A10A0
:10505000F8E700003A7B000890F82810090706D509
:1050600001684A68836B22F400421A434A6090F850
:105070002810C90706D001684A68C36A22F40032C2
:105080001A434A6090F82810890706D501684A68D3
:10509000036B22F480321A434A6090F828104907C3
:1050A00006D501684A68436B22F480221A434A609D
:1050B00090F82810C90606D501688A68C36B22F4E7
:1050C00080521A438A6090F82810890606D5016834
:1050D0008A68036C22F400521A438A6090F8281000
:1050E000490611D501684A68436C22F480121A43BC
:1050F0004A60416CB1F5801F06D101684A68836C33
:1051000022F4C0021A434A6090F82810090606D516
:1051100001684A68C06C22F4002202434A6070476A
:105120002DE9F84300260446C0F89060FCF79CFF88
:105130008046206800684FF0200500076FF07E472A
:1051400013D54346002229042046009700F0BCF9FD
:1051500058B1216851E8000F20F0800041E80002BA
:10516000002AF6D1C4F8885021E020680068400782
:1051700022D5434600224FF480012046009700F0DC
:10518000A3F9C8B1216851E8000F20F4907041E8FC
:105190000002002AF6D12068083050E8001F21F0F4
:1051A000010140E80012002AF5D1C4F88C5084F8BF
:1051B00084600320BDE8F883C4F88850C4F88C509C
:1051C00044F86C6F666026760020F3E710B5806ABD
:1051D0000021A0F85E10FEF7D3FD10BD10B50268E7
:1051E00052E8001F21F4907142E80013002BF6D121
:1051F0000E4B0268083252E8001F194042E80014C2
:10520000002CF6D1C16E012908D1016851E8002FA8
:1052100022F0100241E80023002BF6D12021C0F833
:105220008C100021C166416710BD0000FEFFFFEF3A
:105230002DE9F0410446016880682269E369104362
:10524000626900251A431043DFF84CC20A68934B89
:105250001A4002430A6020684168E26821F4405124
:10526000114341602168A069614501D0226A104361
:105270008A688B4B1A4002438A602068C16A626A5E
:1052800021F00F011143C1628649236886488B4291
:105290000DD1D0F8880010F0030006D0012867D0A7
:1052A000022854D0032851D164E001204FE07F4907
:1052B0008B420BD1D0F8880010F00C0047D00428A6
:1052C00045D0082852D00C2840D153E078498B4271
:1052D0000BD1D0F8880010F0300038D0102847D01B
:1052E000202843D0302831D144E072498B420BD181
:1052F000D0F8880010F0C00029D0402838D080288D
:1053000034D0C02822D135E06B498B420ED1D0F881
:10531000880010F440701AD0B0F5807F28D0B0F526
:10532000007F23D0B0F5407F10D123E063450DD13D
:10533000D0F8880010F4406009D0B0F5806F17D025
:10534000B0F5006F12D0B0F5406F13D010205B4A5B
:105350005B4F00264FF40041634539D160B102280C
:105360000DD004280DD0082831D10EE00220EEE740
:105370000420ECE70820EAE7FDF706FA03E011460F
:1053800003E0FDF725FA01007BD0606A37F81020B2
:105390006768B1FBF2F007EB4703834269D8B0EBD3
:1053A000073F66D8002308461946FAF7F0FF0902BE
:1053B00041EA106102027808101871413A46002350
:1053C000FAF7E5FF3F4AA0F54071914257D950E006
:1053D000E3694FF6EF788B422BD1092849D2DFE8F9
:1053E00000F005080D48254848480E00FDF7CCF9A7
:1053F00001E0FDF7DBF9010001D142E01146606AEE
:1054000037F81000B1FBF0F04100606801EB50018B
:10541000B1FBF0F1A1F1100040452AD84FF6F0722F
:1054200001EA0200C1F34201084328E0FDF7D0F988
:10543000E1E709281DD2DFE800F005080D1C1E1C5D
:105440001C1C0E00FDF7A0F901E0FDF7AFF901000B
:1054500001D116E01146606A37F81000B1FBF0F197
:10546000606801EB5001B1FBF0F0A0F11001414583
:1054700004D9012505E0FDF7ABF9E8E780B2216822
:10548000C8600120A4F86A0024F8680F2846E66086
:105490002661BDE8F081000000800040F369FFCF85
:1054A000FFF4FF11003801400010024000440040AA
:1054B00000480040004C0040005000400024F40030
:1054C000227B0008FFFC0F002DE9F04799461746A4
:1054D0000D4604464FF00008089E33E0701C31D0A2
:1054E000FCF7C2FDA0EB0900B04218D8BEB120689D
:1054F0000168490726D5802D24D0402D22D0C169CE
:10550000C94309070DD4082505622046FFF766FE4A
:10551000C4F8905084F884800120BDE8F08703200F
:10552000FBE7C069C04300050CD421684FF400605C
:1055300008622046FFF752FE2020C4F8900084F84D
:105540008480ECE72068C06935EA000004D00020C0
:10555000B842C3D00020E0E70120F9E70148FEF798
:1055600011BC000064010020FEE703B40198410073
:10557000009850EAC12018BF04204A0D18BF40F01F
:10558000010040F2FF72B2EB515F08BF40F0020031
:10559000012808BF052002B070470907090E00283E
:1055A00004DB00F1E02080F80014704700F00F00E9
:1055B00000F1E02080F8141D70470000000000009A
:1055C00070B59B482DED020B2DED068B079D25F048
:1055D0000044A04218DC9748844202DC0AD10698B5
:1055E00040B19DED060BBDEC068B02B0BDE87040EE
:1055F00000F050BB002DCCBF9FED8F0B9FED900BAB
:10560000BDEC068B02B070BD8F48A04215DD8F48FF
:10561000A042D8BF4FF0FF3458DD9DED060B51EC92
:10562000100BFFF7A2FF042808BF00F059FB9DED07
:10563000060BBDEC068B02B070BD9DED060B51EC68
:10564000100B00F0D7FECDE9060181489FED828B5B
:10565000A0423CDD8248A0421FDD00249FED82ABCA
:105660009DED060B53EC1A2B51EC100B01F02CFCAA
:105670009DED060B41EC190B53EC1A2B51EC100B62
:1056800001F000FF53EC182B02F0E4F853EC192B57
:1056900001F0CEFCCDE9060149E09DED060B0124A9
:1056A00053EC182B51EC100B01F00EFC9DED060B8A
:1056B00041EC190B53EC182B51EC100B02F0CAF80B
:1056C00053EC192B01F0B4FCCDE906012FE068483A
:1056D000A0421FDD02249FED689B9DED060B53EC5D
:1056E000192B51EC100B01F0CDFE53EC182B01F0EF
:1056F000EBFB9DED060B41EC180B53EC192B51EC19
:10570000100B02F0A7F853EC182B01F091FCCDE937
:1057100006010CE09DED060B032453EC102B9FEDCE
:10572000580B51EC100B01F083FCCDE906019DED07
:10573000060B53EC102B51EC100B01F0A3FE41ECC7
:10574000180B53EC182B01F09DFE41EC190B4E4841
:105750000621B0EE490AF0EE690A784400F01EFA1C
:1057600053EC182B51EC100B01F08CFE41EC180B94
:105770004648B0EE490AF0EE690A0521784400F087
:105780000DFA53EC192B51EC100B01F07BFE41ECA0
:10579000100B51EC180B53EC102B002C0EDA01F00F
:1057A00093FB9DED061B53EC112B01F06BFE9DED61
:1057B000061B53EC112B02F041F835E001F084FB9D
:1057C0009DED061B53EC112B01F05CFE41EC100B20
:1057D0002F48784400EBC40090ED001B51EC100BF7
:1057E00053EC112B02F036F89DED061B53EC112BF8
:1057F00002F030F841EC100B2648784400EBC4006E
:1058000090ED001B51EC100B53EC112B02F016F82D
:1058100041EC100B002DA2BFBDEC068B02B070BD99
:1058200051EC100B01F012FB41EC100B01E70000F2
:10583000000010440000F07F182D4454FB21F93F74
:10584000182D4454FB21F9BF0000DC3F0000203E2E
:105850000000F33F00000000000000000000F03FE7
:105860000000E63F000000000000000000000040D3
:105870000080034000000000000000000000F83F2E
:10588000000000000000F0BFCA27000080270000D1
:105890000A270000C226000070B56F4E2DED040BE4
:1058A0002DED048B82B0DDF824C0DDE907235C42D6
:1058B0002CF000411C4341EAD474069D22F00040C4
:1058C000B44205D86C422C4340EAD474B4420BD99C
:1058D0009DED081B9DED060B02B0BDEC048B04B0E2
:1058E000BDE8704000F0E0B9ACF14054A4F17F6431
:1058F0001C430BD0022404EAAC7444EAD27405437E
:105900009FED578B9FED582B07D015E09DED060BB3
:1059100051EC100B00F0F6FB42E0002C11BF012C03
:105920009DED060B02B0BDEC048B04BF04B070BD4E
:10593000022C38D0032C3BD00B439FED4D1B9FED29
:105940004E0B0AD0B14218D1B04209D121F08041AA
:1059500020F08040099107900FE0002A15DA10E04E
:10596000474B7B44002C08BF93ED000B0DD0012C5E
:1059700010D0022C17D0032C1AD0B0421DD1002A0F
:1059800003DAB0EE410AF0EE610A02B0BDEC048B1E
:1059900004B070BD93ED000B51EC100B01F056FA02
:1059A00041EC100BF1E7B0EE480AF0EE680AECE7C4
:1059B000B0EE420AF0EE620AE7E7401A00159FEDEA
:1059C000329B3C28C8BF8DED000B17DCBCF1000FEB
:1059D000BCBF10F13C0F8DED009B0FDB9DED080B64
:1059E00053EC102B9DED060B51EC100B01F020FB3E
:1059F00000F000FD00F086FBCDE90001B4B1012C00
:105A000010D0022C9FED220B53EC102B9DED000BC0
:105A100051EC100B19D001F01DFF53EC182B01F0C5
:105A200019FFBDE7019880F0004001909DED000B4B
:105A300053EC192B51EC100B01F052FC04BF022067
:105A4000FAF701FF9DED000B9FE701F003FF53EC18
:105A5000182B01F0F3FEA3E70000F07F0000000028
:105A6000182D4454FB210940182D4454FB2109C032
:105A7000182D4454FB21F9BF182D4454FB21F93F44
:105A8000F2250000000000000000000000000000FF
:105A9000075C143326A6A13C10B52DED040B86B08F
:105AA0009DED060B10EE100A10EE901A8DED000B16
:105AB000002818BF0120084320F00040C0F17F609B
:105AC00000F1E040C00F21D19DED080B10EE101A3F
:105AD00010EE900A8DED000B002918BF012108433C
